:1000000037C000005DC000005BC0000059C00000A8
:1000100057C0000055C0000053C0000051C0000090
:100020004FC000004DC000004BC0000049C00000A0
:1000300047C0000045C0000043C0000041C00000B0
:100040003FC000003DC000000C94A6080C94CF08EF
:1000500037C0000088C6000033C0000031C0000077
:100060002FC000002DC000001608290A2208350AFA
:1000700011241FBECFEFD8E0DEBFCDBF12E0A0E05D
:10008000B1E0E8E0FAE102C005900D92A632B107B6
:10009000D9F713E0A6E2B2E001C01D92A039B10782
:1000A000E1F710E0CCE6D0E004C02297FE010E9408
:1000B000450BC836D107C9F70E94410A0C94F80CC9
:1000C0009FCFEF92FF920F931F937B018C0120E053
:1000D00030E040E05FE4DFD287FD0FC0C801B70128
:1000E00020E030E040E05FE487D12BD39B01AC01FE
:1000F000205030404040504805C0C801B70121D3CE
:100100009B01AC01B901CA011F910F91FF90EF90C3
:100110000895A0E0B0E0EFE8F0E00C94100BFC01D3
:10012000EA018081823008F438C1DB019C91923071
:1001300008F430C1843059F4943009F02EC1918113
:1001400011968C911197981709F021C126C194300E
:1001500009F420C19230B1F4823009F01EC1CA0105
:10016000AF0128E0DA010D90AD01DC010D92CD0167
:100170002150C1F7DB0111968C9111979181892350
:1001800089830AC1823009F405C1C280D380DB01B2
:1001900012966D907C90139724813581468157810A
:1001A0001496ED90FD900D911C911797C60186193C
:1001B00097095C0197FF04C0AA24BB24A81AB90AB6
:1001C000B0E2AB16B1040CF061C0181619066CF55C
:1001D000370148010A2C04C0969487947794679459
:1001E0000A94D2F781E090E0A0E0B0E00A2C04C0CD
:1001F000880F991FAA1FBB1F0A94D2F70197A10964
:10020000B1098E219F21A023B123EE24FF24870171
:10021000E3940097A105B10519F4EE24FF248701AA
:10022000E628F728082919293CC00097D1F1CA0C03
:10023000DB1C39014A010A2C04C0969487947794F8
:1002400067940A94D2F781E090E0A0E0B0E00A2C35
:1002500004C0880F991FAA1FBB1F0A94D2F70197E9
:10026000A109B10982239323A423B52321E030E01F
:1002700040E050E00097A105B10519F420E030E01E
:10028000A90126293729482959290BC06C147D0456
:1002900024F4EE24FF24870104C0630120E030E051
:1002A000A9018181FB019181891709F445C0882347
:1002B00049F0D801C701821B930BA40BB50B9C011D
:1002C000AD0104C02E193F09400B510B57FD04C06E
:1002D0001982DB82CA820BC081E08983DB82CA82F9
:1002E00050954095309521953F4F4F4F5F4F2C8350
:1002F0003D834E835F830DC0880F991FAA1FBB1FCC
:100300008C839D83AE83BF838A819B8101979B836E
:100310008A838C819D81AE81BF819C01AD0121507A
:100320003040404050402F3FEFEF3E07EFEF4E0789
:10033000EFE35E0708F30BC08983DB82CA822E0DD0
:100340003F1D401F511F2C833D834E835F8383E0FD
:1003500088832C813D814E815F8157FF1DC0DA016A
:10036000C90181709070A070B0705695479537950F
:100370002795822B932BA42BB52B8C839D83AE8347
:10038000BF838A819B8101969B838A8305C0E0E0BD
:10039000F1E003C0FB0101C0FE01CF01CDB7DEB724
:1003A000EEE00C942C0BA0E2B0E0E9EDF1E00C944F
:1003B000180B69837A838B839C832D833E834F83C1
:1003C000588789E0E82EF12CEC0EFD1ECE01019637
:1003D000B701A1D38E010F5E1F4FCE010596B80164
:1003E0009AD3C701B801AE01475E5F4F92DEC6D215
:1003F000A096E6E00C94340BA0E2B0E0E2E0F2E07C
:100400000C94180B69837A838B839C832D833E83A2
:100410004F8358878E01075F1F4FCE010196B801A9
:100420007AD391E1E92EF12CEC0EFD1ECE0105965A
:10043000B70171D38A8991E089278A8BC801B701F6
:10044000AE01475E5F4F65DE99D2A096E6E00C9460
:10045000340BA0E2B0E0EFE2F2E00C940C0B698305
:100460007A838B839C832D833E834F835887CE0171
:100470000196BE01675F7F4F4ED3CE010596BE0148
:100480006F5E7F4F48D39985923078F089898230AA
:10049000C0F0943019F4823041F4CBC0843019F4A8
:1004A000923079F4C6C0923051F481E02A859A895D
:1004B000291709F480E08A87CE010996BCC08230F2
:1004C00051F481E02A859A89291709F480E08A8B02
:1004D000CE014196B0C06D847E848F849888ED886B
:1004E000FE880F89188DE0E2F0E080E090E0DC010A
:1004F000AA24BB24650120E030E0A901B3016170AA
:10050000707061157105D1F02E0D3F1D401F511FF8
:1005100015012601280E391E4A1E5B1E81E090E05F
:10052000A0E0B0E02E153F054007510718F080E02D
:1005300090E0DC01820D931DA41DB51DAA0CBB1C0F
:10054000CC1CDD1C17FF09C061E0262E312C412C8C
:10055000512CA228B328C428D528319749F0EE0C95
:10056000FF1C001F111F9694879477946794C6CF41
:100570006B897C89EB85FC856E0F7F1F6E5F7F4FDB
:100580007C8F6B8F61E0EA857A89E71709F460E078
:100590006A8F6B8D7C8D10C0FC01E170F07030971C
:1005A00029F056954795379527955068B695A795A4
:1005B000979587956F5F7F4FB7FDEECF0CC0880F83
:1005C000991FAA1FBB1F57FD8160220F331F441FB5
:1005D000551F615070408030E0E09E07E0E0AE07BC
:1005E000E0E4BE0760F36B8F7C8F6FE7E62EF12CA3
:1005F000012D112DE822F9220A231B2360E4E616BF
:10060000F1040105110561F487FD0AC021153105CA
:100610004105510529F0805C9F4FAF4FBF4F807857
:100620008D8F9E8FAF8FB8A383E0898FCE014996BF
:1006300002C080E091E0A2D1A096E2E10C94280BE8
:10064000A8E1B0E0E5E2F3E0F3C769837A838B8346
:100650009C832D833E834F8358878E01075F1F4FF6
:10066000CE010196B80157D281E1E82EF12CEC0EB3
:10067000FD1ECE010596B7014ED28985823038F035
:100680008989823020F0C801B701AED201C08FEF56
:100690006896E6E0E9C7A8E1B0E0E0E5F3E0C8C7A6
:1006A00069837A838B839C832D833E834F83588712
:1006B0008E01075F1F4FCE010196B8012CD281E158
:1006C000E82EF12CEC0EFD1ECE010596B70123D2CB
:1006D0008985823038F08989823020F0C801B701DD
:1006E00083D201C08FEF6896E6E0BEC7A8E1B0E014
:1006F000EBE7F3E09DC769837A838B839C832D832B
:100700003E834F8358878E01075F1F4FCE010196AE
:10071000B80101D281E1E82EF12CEC0EFD1ECE01D4
:100720000596B701F8D18985823038F08989823001
:1007300020F0C801B70158D201C081E06896E6E018
:1007400093C7ACE0B0E0E6EAF3E076C769837A836A
:100750008B839C83CE010196BE016B5F7F4FDBD103
:100760008D81823081F1823070F1843021F48E816C
:10077000882369F10AC02F81388537FD24C06E8136
:100780002F3131053CF0662311F120E030E040E0EC
:1007900050E821C08EE190E0821B930B29853A85B9
:1007A0004B855C8504C056954795379527958A9566
:1007B000D2F7662381F050954095309521953F4FB3
:1007C0004F4F5F4F08C020E030E0A90104C02FEF79
:1007D0003FEF4FEF5FE7B901CA012C96E2E048C74F
:1007E000A8E0B0E0E5EFF3E021C77B018C011A82BD
:1007F000611571058105910519F482E089835EC058
:1008000083E089838EE1C82ED12CDC82CB82ED82FD
:10081000FE820F831887C801B70156D0FC013197BB
:10082000F7FF3AC0AA27BB27AE1BBF0B21E030E081
:1008300040E050E00A2E04C0220F331F441F551F12
:100840000A94D2F721503040404050402E213F21A1
:100850004023512361E070E080E090E021153105F4
:100860004105510519F460E070E0CB0104C0169514
:100870000795F794E794AA95D2F7E62AF72A082B6A
:10088000192BED82FE820F8318878EE190E08E1B7C
:100890009F0B9C838B8312C0309781F00E2E04C077
:1008A000EE0CFF1C001F111F0A94D2F7ED82FE828E
:1008B0000F831887CE1ADF0ADC82CB82CE01019625
:1008C0005DD02896E8E0CEC6AF92BF92CF92DF927D
:1008D000EF92FF920F931F937B018C0180E0E8164B
:1008E00080E0F80681E0080780E0180758F4EFEF91
:1008F000EE16F1040105110509F090F480E090E096
:10090000DC0117C0F0E0EF16F0E0FF06F0E00F07A3
:10091000F1E01F0750F480E190E0A0E0B0E009C0F2
:1009200088E090E0A0E0B0E004C088E190E0A0E0C2
:10093000B0E020E230E040E050E0281B390B4A0BE9
:100940005B0B5701680104C0D694C794B794A79471
:100950008A95D2F7D601C501885F9E4FFC01808140
:10096000281B310941095109C9011F910F91FF90BD
:10097000EF90DF90CF90BF90AF900895EF92FF92ED
:100980000F931F93CF93DF93FC0124813581468120
:10099000578161818081823020F44061EFEFF0E087
:1009A000A3C0843009F49BC0823009F492C02115A1
:1009B00031054105510509F48FC00280F381E02D16
:1009C0008FEFE238F8070CF05AC0C2E8DFEFCE1B19
:1009D000DF0BCA31D1056CF579018A010C2E04C0F8
:1009E00016950795F794E7940A94D2F781E090E082
:1009F000A0E0B0E00C2E04C0880F991FAA1FBB1FF7
:100A00000A94D2F70197A109B10982239323A42361
:100A1000B52321E030E040E050E00097A105B105AA
:100A200019F420E030E0A9012E293F29402B512B59
:100A300003C020E030E0A901DA01C9018F7790708E
:100A4000A070B07080349105A105B10539F427FF7D
:100A500009C0205C3F4F4F4F5F4F04C0215C3F4FA8
:100A60004F4F5F4FE1E0F0E0203080E0380780E05A
:100A7000480780E4580728F5E0E0F0E022C0E038BD
:100A8000F1056CF5E158FF4FDA01C9018F779070DD
:100A9000A070B07080349105A105B10539F427FF2D
:100AA00009C0205C3F4F4F4F5F4F04C0215C3F4F58
:100AB0004F4F5F4F57FF05C0569547953795279580
:100AC000319687E056954795379527958A95D1F7C2
:100AD0000BC0E0E0F0E005C0E0E0F0E005C0EFEFC3
:100AE000F0E020E030E0A9018E2F879588278795D8
:100AF000942F9F77679566276795E695E22EA92F35
:100B0000A82BFE2FF62B622F732F8A2F9F2FCDB786
:100B1000DEB7E6E0A9C5DC01FB012C9111963C9102
:100B2000119712968C911297482F4F7750E0982F7B
:100B3000991F9927991F13966C911397862F880FE9
:100B4000892B90E0661F6627661F6183009739F541
:100B5000211531054105510511F482E029C082E8D3
:100B60009FEF9383828367E0220F331F441F551F3B
:100B70006A95D1F783E0808309C0220F331F441F99
:100B8000551F82819381019793838283203080E077
:100B9000380780E0480780E4580778F320C08F3F8B
:100BA000910579F4211531054105510519F484E0C9
:100BB0008083089544FF03C081E0808310C01082C9
:100BC0000EC08F5790409383828383E0808387E0B9
:100BD000220F331F441F551F8A95D1F75064248379
:100BE0003583468357830895FC01DB019081923061
:100BF00008F449C08C91823008F445C0943051F417
:100C000061818430B1F511962C91119730E0261B4B
:100C1000310941C0843021F0923041F48230B1F189
:100C200011968C9111978823A1F12DC0618182309A
:100C300001F111968C9111976817D9F422813381B3
:100C400012968D919C9113978217930794F0281711
:100C50003907BCF0248135814681578114968D91E6
:100C60009D910D90BC91A02D82179307A407B50705
:100C700018F4662341F00DC0281739074A075B07AF
:100C800028F4662331F021E030E005C020E030E0B8
:100C900002C02FEF3FEFC9010895DF93CF9300D03B
:100CA000CDB7DEB79A83898389819A8108D60F9060
:100CB0000F90CF91DF910895DF93CF9300D0CDB700
:100CC000DEB79A83898389819A8122E132E0FC012F
:100CD0003183208389819A810296F8D084E690E05E
:100CE00024E630E0F90120812E7FFC0120838AE791
:100CF00090E02BEAFC0120830F900F90CF91DF91C1
:100D00000895DF93CF9300D0CDB7DEB79A83898360
:100D100089819A8122E132E0FC013183208389813B
:100D20009A810296F0D080E090E0817090708823E4
:100D300019F089819A81B1DF0F900F90CF91DF91E7
:100D40000895DF93CF9300D0CDB7DEB79A83898320
:100D500089819A81D6DF89819A819FDF0F900F90D8
:100D6000CF91DF9108951F920F920FB60F92112429
:100D70002F933F934F935F936F937F938F939F93A3
:100D8000AF93BF93EF93FF93DF93CF93CDB7DEB7CE
:100D900013D0CF91DF91FF91EF91BF91AF919F91D0
:100DA0008F917F916F915F914F913F912F910F9014
:100DB0000FBE0F901F901895DF93CF9300D0CDB743
:100DC000DEB788E790E0FC01808191819A83898376
:100DD00029813A8188E292E0B901C3D08AE790E0A4
:100DE0002AE730E0F90120812064FC0120830F9084
:100DF0000F90CF91DF910895DF93CF93CDB7DEB7FA
:100E00002C970FB6F894DEBF0FBECDBF9A878987A7
:100E10007C876B871A8219821B821C821D821E822C
:100E200020C087E490E0FC018081882F90E09887C3
:100E30008F834F8158852F813885429FC001439F02
:100E4000900D529F900D1124AA2797FDA095BA2FBF
:100E50008B839C83AD83BE8389819A8101969A831B
:100E6000898341E029813A818B859C852817390740
:100E70000CF040E04423A9F68B859C859C01442717
:100E800037FD4095542F8B819C81AD81BE81BC0183
:100E9000CD01A0D3DA01C901BC01CD01A1DCDC0187
:100EA000CB01BC01CD01F9D3DC01CB01BC01CD01EB
:100EB00008D9DC01CB01BC01CD012C960FB6F8940A
:100EC000DEBF0FBECDBFCF91DF910895DF93CF93EB
:100ED00000D0CDB7DEB79A83898389819A812AE1D0
:100EE00032E0FC013183208389819A81FC0111AABF
:100EF00010AA89819A81FC0113AA12AA0F900F905F
:100F0000CF91DF910895DF93CF9300D0CDB7DEB7B7
:100F10009A83898389819A812AE132E0FC013183B5
:100F2000208382E090E081709070882319F089819D
:100F30009A81B3DE0F900F90CF91DF910895DF93E8
:100F4000CF9300D0CDB7DEB79A83898389819A8108
:100F5000DADF89819A81A1DE0F900F90CF91DF9126
:100F60000895DF93CF9300D000D0CDB7DEB79A833A
:100F700089837C836B8389819A81FC0180A991A9F3
:100F800049815A819C012F5F3F4F220F331F240F4D
:100F9000351F4B815C81F901518340839C012F5F98
:100FA0003F4F89819A81FC0131AB20AB89819A81C5
:100FB000FC0180A991A98731910529F489819A8141
:100FC000FC0111AA10AA0F900F900F900F90CF91D3
:100FD000DF910895DF93CF9300D000D0CDB7DEB777
:100FE0009A8389837C836B8389819A81813091057F
:100FF00049F48B819C812FEF8F3F920719F486E291
:1010000092E05ADE89819A81009749F48B819C8114
:101010002FEF8F3F920719F486E292E072DE0F9075
:101020000F900F900F90CF91DF910895DF93CF93A2
:10103000CDB7DEB781E090E06FEF7FEFCBDFCF91F0
:10104000DF910895DF93CF93CDB7DEB780E090E0D6
:101050006FEF7FEFBFDFCF91DF910895DF93CF93E5
:1010600000D0CDB7DEB79A83898389819A81C0D0B9
:1010700089819A8188569F4FBBD085EC90E0FC0116
:10108000108284EC90E027E6FC01208382EC90E063
:1010900026E0FC01208381EC90E028E9FC0120831C
:1010A0000F900F90CF91DF910895DF93CF9300D0F1
:1010B0000F92CDB7DEB79A8389836B838B81282FFC
:1010C00030E084EF92E0B901E2D081EC90E021ECD5
:1010D00030E0F90120812062FC0120830F900F9005
:1010E0000F90CF91DF910895DF93CF93CDB7DEB707
:1010F00086EC90E0FC018081282F30E08CE592E0C6
:10110000B901C5D0CF91DF9108950F931F93DF935D
:10111000CF93CDB7DEB784EF92E03BD1882341F087
:1011200006EC10E084EF92E0F3D0F801808309C070
:1011300081EC90E021EC30E0F90120812F7DFC0171
:101140002083CF91DF911F910F9108951F920F92ED
:101150000FB60F9211242F933F934F935F936F938A
:101160007F938F939F93AF93BF93EF93FF93DF93FF
:10117000CF93CDB7DEB7B8DFCF91DF91FF91EF917D
:10118000BF91AF919F918F917F916F915F914F919F
:101190003F912F910F900FBE0F901F9018951F92A7
:1011A0000F920FB60F9211242F933F934F935F939B
:1011B0006F937F938F939F93AF93BF93EF93FF931F
:1011C000DF93CF93CDB7DEB7A0DFCF91DF91FF9153
:1011D000EF91BF91AF919F918F917F916F915F91AF
:1011E0004F913F912F910F900FBE0F901F90189528
:1011F000DF93CF9300D0CDB7DEB79A8389838981FF
:101200009A8122E232E0FC013183208389819A8134
:101210008C569F4FFC011182108289819A818A56D7
:101220009F4FFC01118210820F900F90CF91DF91A0
:101230000895DF93CF9300D0CDB7DEB79A8389832B
:1012400089819A8122E232E0FC013183208382E0AD
:1012500090E081709070882319F089819A811DDD5A
:101260000F900F90CF91DF910895DF93CF9300D02F
:10127000CDB7DEB79A83898389819A81DADF898144
:101280009A810BDD0F900F90CF91DF910895DF933E
:10129000CF9300D000D0CDB7DEB79A8389837C830B
:1012A0006B8389819A818C569F4FFC01808191814B
:1012B00049815A819C012F5F3F4F220F331F240F1A
:1012C000351F4B815C81F901518340839C012F5F65
:1012D0003F4F89819A818C569F4FFC013183208337
:1012E00089819A818C569F4FFC018081918189343C
:1012F000910539F489819A818C569F4FFC011182A6
:1013000010820F900F900F900F90CF91DF91089562
:10131000DF93CF9300D000D0CDB7DEB79C838B8313
:101320008B819C818A569F4FFC01808191814B81EA
:101330005C819C012F5F3F4F220F331F240F351F0D
:10134000F901208131813A8329839C012F5F3F4F2E
:101350008B819C818A569F4FFC01318320838B8136
:101360009C818A569F4FFC0180819181893491052F
:1013700039F48B819C818A569F4FFC011182108227
:1013800089819A810F900F900F900F90CF91DF91EC
:101390000895DF93CF9300D0CDB7DEB79A838983CA
:1013A00089819A818C569F4FFC01208131818981EE
:1013B0009A818A569F4FFC018081918141E02817D4
:1013C000390709F440E0842F0F900F90CF91DF91FF
:1013D0000895DF93CF9300D0CDB7DEB79A8389838A
:1013E00089819A8188569F4F24DF89819A8121DFE4
:1013F0000F900F90CF91DF910895DF93CF9300D09E
:1014000000D0CDB7DEB79A8389837C836B838981D3
:101410009A818130910549F48B819C812FEF8F3F18
:10142000920719F48CE592E019DE89819A81009780
:1014300049F48B819C812FEF8F3F920719F48CE543
:1014400092E0C7DF0F900F900F900F90CF91DF9138
:101450000895DF93CF93CDB7DEB781E090E06FEFD3
:101460007FEFCBDFCF91DF910895DF93CF93CDB79F
:10147000DEB780E090E06FEF7FEFBFDFCF91DF91CD
:1014800008950F931F93DF93CF93CDB7DEB7C65761
:10149000D1400FB6F894DEBF0FBECDBFCE0141964E
:1014A0000BDCCE01895B9F4FD9DD78941A821982BB
:1014B000CE0141966EE170E09FDCDC01CB019A83A6
:1014C00089832981CE01895B9F4F622FEEDD80E009
:1014D00090E0A8ECB2E48B839C83AD83BE836B81E8
:1014E0007C818D819E8120E030E04AE755E40E94B6
:1014F0002902DC01CB018F839887A987BA8711E085
:101500006F81788589859A8520E030E040E85FE347
:10151000EDD888230CF010E0112329F081E090E051
:101520009C878B8749C011E06F81788589859A8572
:1015300020E03FEF4FE757E483D818160CF010E097
:10154000112381F16B817C818D819E8120E030E0CF
:1015500040E251E40E942902DC01CB01BC01CD0133
:101560000E946100DC01CB019C878B8712C080E95F
:1015700091E09E878D878D859E858C01C80101979E
:10158000F1F78C011E870D878B859C8501979C87C1
:101590008B8721E08B859C85009709F420E022232E
:1015A00031F786CF6F81788589859A850E946100A1
:1015B000DC01CB019C878B878B859C85988B8F87E3
:1015C0008F8598898C01C8010197F1F78C01188BE0
:1015D0000F876ECFA1E21A2EAA1BBB1BFD010DC007
:1015E000AA1FBB1FEE1FFF1FA217B307E407F507D3
:1015F00020F0A21BB30BE40BF50B661F771F881FAF
:10160000991F1A9469F760957095809590959B0144
:10161000AC01BD01CF0108952F923F924F925F928E
:101620006F927F928F929F92AF92BF92CF92DF92F2
:10163000EF92FF920F931F93CF93DF93CDB7DEB757
:10164000CA1BDB0B0FB6F894DEBF0FBECDBF0994EB
:101650002A88398848885F846E847D848C849B8442
:10166000AA84B984C884DF80EE80FD800C811B8150
:10167000AA81B981CE0FD11D0FB6F894DEBF0FBE7F
:10168000CDBFED010895EE0FFF1F0590F491E02D01
:10169000099411F40EF44DC03EC05DD0D0F39923EF
:1016A000D9F3CEF39F57550B87FF46D00024A0E611
:1016B00040EA900180585695979528F4805C660F13
:1016C000771F881F20F026173707480730F4621B62
:1016D000730B840B202931294A2BA6951794079464
:1016E000202531254A2758F7660F771F881F20F0DD
:1016F00026173707480730F4620B730B840B200D55
:10170000311D411DA09581F7B901842F9158880F93
:101710009695879508959F3F31F0915020F48795D5
:1017200077956795B795880F911D9695879597F949
:1017300008959FEF80EC089591505040660F771FF9
:10174000881FD2F7089557FD9058440F551F59F040
:101750005F3F71F04795880F97FB991F61F09F3F9E
:1017600079F087950895121613061406551FF2CFC7
:101770004695F1DF08C0161617061806991FF1CF17
:1017800086957105610508940895CF93DF938230A3
:10179000910510F482E090E0E0918E03F0918F03C8
:1017A00040E050E020E030E026C0608171816817A1
:1017B0007907E0F06817790781F482819381211518
:1017C000310531F0D90113969C938E9312972BC05B
:1017D00090938F0380938E0326C04115510519F015
:1017E0006417750718F4AB01E901DF019F017281ED
:1017F0006381E72FF62F3097C1F64115510501F1AE
:10180000481B590B4430510580F412968D919C91E0
:101810001397209719F09B838A8304C090938F03BA
:1018200080938E03FD01329646C0FD01E40FF51F43
:10183000819391934250504011965C934E933BC0DC
:1018400020918C0330918D032115310541F42091B5
:101850000A0230910B0230938D0320938C03209168
:101860000C0230910D022115310541F42DB73EB720
:101870004091080250910902241B350BE0918C0322
:10188000F0918D03E217F307A0F42E1B3F0B2817EE
:10189000390778F0AC014E5F5F4F2417350748F0E9
:1018A0004E0F5F1F50938D0340938C038193919350
:1018B00002C0E0E0F0E0CF01DF91CF910895CF9337
:1018C000DF93009709F491C0FC01329713821282D2
:1018D00060918E0370918F036115710581F42081F1
:1018E0003181280F391F80918C0390918D038217CD
:1018F000930799F5F0938D03E0938C0376C0DB0199
:1019000080E090E002C0CD01D901AE17BF0748F4D6
:1019100012962D913C91139721153105A1F7CD0118
:1019200021C0B383A283EF01499159919E01240FF5
:10193000351FA217B30779F42D913C911197240F0D
:10194000351F2E5F3F4F3183208312962D913C919E
:10195000139733832283009729F4F0938F03E09346
:101960008E0343C0DC011396FC93EE9312974D91C6
:101970005D91A40FB51FEA17FB0769F4208131813F
:10198000240F351F2E5F3F4FEC01398328832281BE
:1019900033813B832A83E0E0F0E002C0FB01BC011D
:1019A000DB0112968D919C9113970097B9F79B01DB
:1019B0002E5F3F4F8D919C911197820F931F409105
:1019C0008C0350918D034817590779F4309729F407
:1019D00010928F0310928E0302C013821282225043
:1019E000304030938D0320938C03DF91CF91089585
:1019F00010E0CCE6D0E003C0FE0147DE2296C037FF
:081A0000D107D1F7F894FFCFE4
:101A080000000000000000000001020203030303BD
:101A18000404040404040404050505050505050576
:101A28000505050505050505060606060606060656
:101A3800060606060606060606060606060606063E
:101A48000606060606060606070707070707070726
:101A5800070707070707070707070707070707070E
:101A680007070707070707070707070707070707FE
:101A780007070707070707070707070707070707EE
:101A880007070707070707070808080808080808D6
:101A980008080808080808080808080808080808BE
:101AA80008080808080808080808080808080808AE
:101AB800080808080808080808080808080808089E
:101AC800080808080808080808080808080808088E
:101AD800080808080808080808080808080808087E
:101AE800080808080808080808080808080808086E
:101AF800080808080808080808080808080808085E
:101B080008080808080808082000900300000000DA
:101B180000008106A1060000000083079F0700005F
:061B280000001909350957
:00000001FF
