:1000000035C000005BC0000059C0000057C00000B0
:1000100055C0000053C0000051C000004FC0000098
:100020004DC000004BC0000049C0000047C00000A8
:1000300045C0000043C0000041C000003FC00000B8
:100040003DC000003BC000000C944A090C947309A9
:1000500035C000008FC6000031C000002FC0000076
:100060002DC000002BC00000730A7F0A11241FBEA0
:10007000CFEFD8E0DEBFCDBF12E0A0E0B1E0E8E115
:10008000FBE102C005900D92A632B107D9F712E04C
:10009000A6E2B2E001C01D92A439B107E1F710E079
:1000A000CAE6D0E004C02297FE010E94CD0BC836FC
:1000B000D107C9F70E948B0A0C94800DA1CFEF9253
:1000C000FF920F931F937B018C0120E030E040E012
:1000D0005FE4E1D287FD0FC0C801B70120E030E046
:1000E00040E05FE487D131D39B01AC012050304028
:1000F0004040504805C0C801B70127D39B01AC015F
:10010000B901CA011F910F91FF90EF900895A0E0EF
:10011000B0E0EDE8F0E00C94980BFC01EA0180817E
:10012000823008F438C1DB019C91923008F430C170
:10013000843059F4943009F02EC1918111968C913C
:100140001197981709F021C126C1943009F420C1F4
:100150009230B1F4823009F01EC1CA01AF0128E02B
:10016000DA010D90AD01DC010D92CD012150C1F7F6
:10017000DB0111968C9111979181892389830AC1A2
:10018000823009F405C1C280D380DB0112966D90E4
:100190007C90139724813581468157811496ED9088
:1001A000FD900D911C911797C601861997095C0166
:1001B00097FF04C0AA24BB24A81AB90AB0E2AB1660
:1001C000B1040CF061C0181619066CF5370148012E
:1001D0000A2C04C096948794779467940A94D2F773
:1001E00081E090E0A0E0B0E00A2C04C0880F991FE5
:1001F000AA1FBB1F0A94D2F70197A109B1098E214A
:100200009F21A023B123EE24FF248701E3940097CC
:10021000A105B10519F4EE24FF248701E628F7288B
:10022000082919293CC00097D1F1CA0CDB1C3901FF
:100230004A010A2C04C096948794779467940A9490
:10024000D2F781E090E0A0E0B0E00A2C04C0880F73
:10025000991FAA1FBB1F0A94D2F70197A109B109E0
:1002600082239323A423B52321E030E040E050E033
:100270000097A105B10519F420E030E0A901262975
:100280003729482959290BC06C147D0424F4EE2425
:10029000FF24870104C0630120E030E0A9018181CF
:1002A000FB019181891709F445C0882349F0D801E1
:1002B000C701821B930BA40BB50B9C01AD0104C0BD
:1002C0002E193F09400B510B57FD04C01982DB82E8
:1002D000CA820BC081E08983DB82CA825095409537
:1002E000309521953F4F4F4F5F4F2C833D834E8379
:1002F0005F830DC0880F991FAA1FBB1F8C839D832E
:10030000AE83BF838A819B8101979B838A838C8183
:100310009D81AE81BF819C01AD01215030404040A4
:1003200050402F3FEFEF3E07EFEF4E07EFE35E0742
:1003300008F30BC08983DB82CA822E0D3F1D401F4C
:10034000511F2C833D834E835F8383E088832C8100
:100350003D814E815F8157FF1DC0DA01C901817067
:100360009070A070B0705695479537952795822B61
:10037000932BA42BB52B8C839D83AE83BF838A8163
:100380009B8101969B838A8305C0E0E0F1E003C076
:10039000FB0101C0FE01CF01CDB7DEB7EEE00C944A
:1003A000B40BA0E2B0E0E7EDF1E00C94A00B6983A0
:1003B0007A838B839C832D833E834F83588789E088
:1003C000E82EF12CEC0EFD1ECE010196B701A7D34D
:1003D0008E010F5E1F4FCE010596B801A0D3C70155
:1003E000B801AE01475E5F4F92DECCD2A096E6E048
:1003F0000C94BC0BA0E2B0E0E0E0F2E00C94A00BA7
:1004000069837A838B839C832D833E834F835887B4
:100410008E01075F1F4FCE010196B80180D391E195
:10042000E92EF12CEC0EFD1ECE010596B70177D317
:100430008A8991E089278A8BC801B701AE01475E9E
:100440005F4F65DE9FD2A096E6E00C94BC0BA0E265
:10045000B0E0EDE2F2E00C94940B69837A838B8335
:100460009C832D833E834F835887CE010196BE0126
:10047000675F7F4F54D3CE010596BE016F5E7F4FFD
:100480004ED39985923078F089898230C0F09430CB
:1004900019F4823041F4CBC0843019F4923079F4ED
:1004A000C6C0923051F481E02A859A89291709F44F
:1004B00080E08A87CE010996BCC0823051F481E089
:1004C0002A859A89291709F480E08A8BCE01419602
:1004D000B0C06D847E848F849888ED88FE880F89F3
:1004E000188DE0E2F0E080E090E0DC01AA24BB247B
:1004F000650120E030E0A901B30161707070611501
:100500007105D1F02E0D3F1D401F511F1501260111
:10051000280E391E4A1E5B1E81E090E0A0E0B0E08C
:100520002E153F054007510718F080E090E0DC01F0
:10053000820D931DA41DB51DAA0CBB1CCC1CDD1C7B
:1005400017FF09C061E0262E312C412C512CA22826
:10055000B328C428D528319749F0EE0CFF1C001FA2
:10056000111F9694879477946794C6CF6B897C8982
:10057000EB85FC856E0F7F1F6E5F7F4F7C8F6B8FCF
:1005800061E0EA857A89E71709F460E06A8F6B8D8C
:100590007C8D10C0FC01E170F070309729F0569509
:1005A0004795379527955068B695A7959795879560
:1005B0006F5F7F4FB7FDEECF0CC0880F991FAA1F4A
:1005C000BB1F57FD8160220F331F441F551F615011
:1005D00070408030E0E09E07E0E0AE07E0E4BE0758
:1005E00060F36B8F7C8F6FE7E62EF12C012D112DC0
:1005F000E822F9220A231B2360E4E616F104010530
:10060000110561F487FD0AC0211531054105510529
:1006100029F0805C9F4FAF4FBF4F80788D8F9E8FAA
:10062000AF8FB8A383E0898FCE01499602C080E0E6
:1006300091E0A8D1A096E2E10C94B00BA8E1B0E063
:10064000E4E2F3E00C94A00B69837A838B839C83B0
:100650002D833E834F8358878E01075F1F4FCE0146
:100660000196B8015CD281E1E82EF12CEC0EFD1E62
:10067000CE010596B70153D28985823038F0898939
:10068000823020F0C801B701B3D201C08FEF689665
:10069000E6E00C94BC0BA8E1B0E0E1E5F3E00C94DB
:1006A000A00B69837A838B839C832D833E834F8346
:1006B00058878E01075F1F4FCE010196B8012FD2D8
:1006C00081E1E82EF12CEC0EFD1ECE010596B7015E
:1006D00026D28985823038F08989823020F0C8019D
:1006E000B70186D201C08FEF6896E6E00C94BC0B90
:1006F000A8E1B0E0EEE7F3E00C94A00B69837A8305
:100700008B839C832D833E834F8358878E01075FA5
:100710001F4FCE010196B80102D281E1E82EF12CE3
:10072000EC0EFD1ECE010596B701F9D18985823008
:1007300038F08989823020F0C801B70159D201C050
:1007400081E06896E6E00C94BC0BACE0B0E0EAEA2D
:10075000F3E0FAC769837A838B839C83CE01019689
:10076000BE016B5F7F4FDBD18D81823081F18230A2
:1007700070F1843021F48E81882369F10AC02F81C1
:10078000388537FD24C06E812F3131053CF066235A
:1007900011F120E030E040E050E821C08EE190E02F
:1007A000821B930B29853A854B855C8504C0569541
:1007B0004795379527958A95D2F7662381F050950E
:1007C0004095309521953F4F4F4F5F4F08C020E037
:1007D00030E0A90104C02FEF3FEF4FEF5FE7B90111
:1007E000CA012C96E2E0CCC7A8E0B0E0E9EFF3E064
:1007F000A5C77B018C011A826115710581059105E0
:1008000019F482E089835EC083E089838EE1C82E7B
:10081000D12CDC82CB82ED82FE820F831887C80147
:10082000B70156D0FC013197F7FF3AC0AA27BB2782
:10083000AE1BBF0B21E030E040E050E00A2E04C0C8
:10084000220F331F441F551F0A94D2F72150304006
:10085000404050402E213F214023512361E070E071
:1008600080E090E0211531054105510519F460E063
:1008700070E0CB0104C016950795F794E794AA950C
:10088000D2F7E62AF72A082B192BED82FE820F8376
:1008900018878EE190E08E1B9F0B9C838B8312C088
:1008A000309781F00E2E04C0EE0CFF1C001F111FAC
:1008B0000A94D2F7ED82FE820F831887CE1ADF0AE0
:1008C000DC82CB82CE0101965DD02896E8E052C74B
:1008D000AF92BF92CF92DF92EF92FF920F931F934E
:1008E0007B018C0180E0E81680E0F80681E00807D3
:1008F00080E0180758F4EFEFEE16F104010511053A
:1009000009F090F480E090E0DC0117C0F0E0EF1611
:10091000F0E0FF06F0E00F07F1E01F0750F480E180
:1009200090E0A0E0B0E009C088E090E0A0E0B0E096
:1009300004C088E190E0A0E0B0E020E230E040E0D8
:1009400050E0281B390B4A0B5B0B5701680104C0B0
:10095000D694C794B794A7948A95D2F7D601C501C7
:10096000885F9E4FFC018081281B31094109510994
:10097000C9011F910F91FF90EF90DF90CF90BF9032
:10098000AF900895EF92FF920F931F93CF93DF9351
:10099000FC012481358146815781618180818230CB
:1009A00020F44061EFEFF0E0A3C0843009F49BC075
:1009B000823009F492C0211531054105510509F431
:1009C0008FC00280F381E02D8FEFE238F8070CF042
:1009D0005AC0C2E8DFEFCE1BDF0BCA31D1056CF580
:1009E00079018A010C2E04C016950795F794E794B7
:1009F0000A94D2F781E090E0A0E0B0E00C2E04C0B1
:100A0000880F991FAA1FBB1F0A94D2F70197A1094B
:100A1000B10982239323A423B52321E030E040E0F1
:100A200050E00097A105B10519F420E030E0A901DC
:100A30002E293F29402B512B03C020E030E0A90193
:100A4000DA01C9018F779070A070B0708034910581
:100A5000A105B10539F427FF09C0205C3F4F4F4F76
:100A60005F4F04C0215C3F4F4F4F5F4FE1E0F0E02C
:100A7000203080E0380780E0480780E4580728F5F8
:100A8000E0E0F0E022C0E038F1056CF5E158FF4FFE
:100A9000DA01C9018F779070A070B0708034910531
:100AA000A105B10539F427FF09C0205C3F4F4F4F26
:100AB0005F4F04C0215C3F4F4F4F5F4F57FF05C052
:100AC0005695479537952795319687E056954795E2
:100AD000379527958A95D1F70BC0E0E0F0E005C087
:100AE000E0E0F0E005C0EFEFF0E020E030E0A90149
:100AF0008E2F879588278795942F9F7767956627F0
:100B00006795E695E22EA92FA82BFE2FF62B622FD4
:100B1000732F8A2F9F2FCDB7DEB7E6E02DC6DC01FD
:100B2000FB012C9111963C91119712968C91129782
:100B3000482F4F7750E0982F991F9927991F1396A8
:100B40006C911397862F880F892B90E0661F66277C
:100B5000661F6183009739F521153105410551055F
:100B600011F482E029C082E89FEF9383828367E0DB
:100B7000220F331F441F551F6A95D1F783E08083EE
:100B800009C0220F331F441F551F82819381019793
:100B900093838283203080E0380780E0480780E438
:100BA000580778F320C08F3F910579F4211531055E
:100BB0004105510519F484E08083089544FF03C082
:100BC00081E0808310C010820EC08F5790409383C5
:100BD000828383E0808387E0220F331F441F551FE9
:100BE0008A95D1F7506424833583468357830895CB
:100BF000FC01DB019081923008F449C08C91823075
:100C000008F445C0943051F461818430B1F51196F7
:100C10002C91119730E0261B310941C0843021F01E
:100C2000923041F48230B1F111968C911197882362
:100C3000A1F12DC06181823001F111968C91119743
:100C40006817D9F42281338112968D919C91139764
:100C50008217930794F028173907BCF02481358157
:100C60004681578114968D919D910D90BC91A02D38
:100C700082179307A407B50718F4662341F00DC047
:100C8000281739074A075B0728F4662331F021E06B
:100C900030E005C020E030E002C02FEF3FEFC90197
:100CA0000895DF93CF9300D0CDB7DEB79A838983C1
:100CB00089819A818CD60F900F90CF91DF91089502
:100CC000DF93CF9300D0CDB7DEB79A838983898134
:100CD0009A8122E132E0FC013183208389819A816B
:100CE0000A963ED178948CE790E020E4FC012083C2
:100CF0008AE790E02FEEFC01208389819A8190930E
:100D00002702809326020F900F90CF91DF910895D4
:100D1000DF93CF9300D0CDB7DEB79A8389838981E3
:100D20009A8122E132E0FC013183208389819A811A
:100D30000A9638D180E090E081709070882319F095
:100D400089819A81AEDF0F900F90CF91DF91089546
:100D5000DF93CF9300D0CDB7DEB79A8389838981A3
:100D60009A81D6DF89819A819CDF0F900F90CF9175
:100D7000DF9108951F920F920FB60F9211242F93B7
:100D80003F934F935F936F937F938F939F93AF9313
:100D9000BF93EF93FF93DF93CF93CDB7DEB713D01D
:100DA000CF91DF91FF91EF91BF91AF919F918F9183
:100DB0007F916F915F914F913F912F910F900FBE57
:100DC0000F901F901895DF93CF93CDB7DEB780912A
:100DD0002602909127020A9628E730E0F901208147
:100DE0003181B9010DD1CF91DF910895DF93CF9378
:100DF00000D0CDB7DEB79A83898389819A810A961C
:100E000049D10F900F90CF91DF910895DF93CF9349
:100E100000D0CDB7DEB79A83898389819A81C49641
:100E20004AD189819A8147D10F900F90CF91DF915C
:100E300008950F931F93DF93CF93CDB7DEB7C657B7
:100E4000D0400FB6F894DEBF0FBECDBF9E012D5827
:100E50003F4FF90191838083CE018B589F4FFC0156
:100E600071836083CE010B969ED11A8219821B82F8
:100E70001C821D821E821F82188619861A862DC02A
:100E8000CE018D589F4FFC01808191810A9641D1FE
:100E9000CC01A0E0B0E08F839887A987BA878F81C3
:100EA0009885A985BA852F81388549855A85BC01E1
:100EB000CD01F9D3DC01CB012B813C814D815E81D9
:100EC000820F931FA41FB51F8B839C83AD83BE83AA
:100ED00089819A8101969A838983CE018B589F4F8D
:100EE00041E029813A81FC018081918128173907ED
:100EF0000CF040E0442321F6CE018B589F4FFC01BB
:100F0000808191819C01442737FD4095542F8B812E
:100F10009C81AD81BE81BC01CD01E4D3DA01C90160
:100F2000BC01CD0161DCDC01CB01BC01CD013DD4B4
:100F3000DC01CB01BC01CD01C2D8DC01CB018C01AD
:100F4000CE010B9663DFC801CA58DF4F0FB6F89485
:100F5000DEBF0FBECDBFCF91DF911F910F910895DE
:100F6000DF93CF9300D0CDB7DEB79A838983898191
:100F70009A812AE132E0FC013183208389819A81C0
:100F8000FC0111AA10AA89819A81FC0113AA12AA54
:100F900089819A81FC0115AA14AA0F900F90CF9114
:100FA000DF910895DF93CF9300D0CDB7DEB79A835A
:100FB000898389819A812AE132E0FC01318320838F
:100FC00082E090E081709070882319F089819A8185
:100FD00068DE0F900F90CF91DF910895DF93CF934C
:100FE00000D0CDB7DEB79A83898389819A81DADF11
:100FF00089819A8156DE0F900F90CF91DF910895ED
:10100000DF93CF9300D000D0CDB7DEB79A8389832A
:101010007C836B8389819A81FC0180A991A9498194
:101020005A819C012F5F3F4F220F331F240F351F22
:101030004B815C81F901518340839C012F5F3F4FBD
:1010400089819A81FC0131AB20AB89819A81FC01B5
:1010500080A991A921E08731910509F020E02223A0
:1010600029F089819A81FC0111AA10AA89819A81AB
:10107000FC0184A995A99C012F5F3F4F89819A812A
:10108000FC0135AB24AB0F900F900F900F90CF91D8
:10109000DF910895DF93CF9300D0CDB7DEB79A8369
:1010A000898389819A81FC0184A995A90F900F9069
:1010B000CF91DF910895DF93CF9300D0CDB7DEB706
:1010C0009A83898389819A8122E232E0FC0131830B
:1010D000208382E090E081709070882319F08981EC
:1010E0009A81DFDD0F900F90CF91DF910895DF930C
:1010F000CF9300D0CDB7DEB79A83898389819A8157
:10110000DADF89819A81CDDD0F900F90CF91DF9149
:101110000895DF93CF9300D000D0CDB7DEB79C8386
:101120008B838B819C81FC0182A993A94B815C817B
:101130009C012F5F3F4F220F331F240F351FF901F2
:10114000208131813A8329839C012F5F3F4F8B811E
:101150009C81FC0133AB22AB8B819C81FC0182A979
:1011600093A921E08731910509F020E0222329F09D
:101170008B819C81FC0113AA12AA8B819C81FC01AA
:1011800084A995A99C01215030408B819C81FC0150
:1011900035AB24AB89819A810F900F900F900F90FF
:1011A000CF91DF910895DF93CF9300D0CDB7DEB715
:1011B0009A83898389819A81BFD089819A81C496D3
:1011C000BBD085EC90E0FC01108284EC90E023E33E
:1011D000FC01208382EC90E026E0FC01208381EC7E
:1011E00090E028E9FC0120830F900F90CF91DF91D0
:1011F0000895DF93CF9300D00F92CDB7DEB79A83D7
:1012000089836B838B81282F30E08CE592E0B901D4
:10121000B0D081EC90E021EC30E0F9012081206237
:10122000FC0120830F900F900F90CF91DF910895D4
:10123000DF93CF93CDB7DEB786EC90E0FC018081E1
:10124000282F30E088E292E0B90193D0CF91DF916E
:1012500008950F931F93DF93CF93CDB7DEB78CE53F
:1012600092E0F9D0882341F006EC10E08CE592E0A2
:10127000B9D0F801808309C081EC90E021EC30E026
:10128000F90120812F7DFC012083CF91DF911F91F7
:101290000F9108951F920F920FB60F9211242F9362
:1012A0003F934F935F936F937F938F939F93AF93EE
:1012B000BF93EF93FF93DF93CF93CDB7DEB7B8DF44
:1012C000CF91DF91FF91EF91BF91AF919F918F915E
:1012D0007F916F915F914F913F912F910F900FBE32
:1012E0000F901F9018951F920F920FB60F92112416
:1012F0002F933F934F935F936F937F938F939F931E
:10130000AF93BF93EF93FF93DF93CF93CDB7DEB748
:10131000A0DFCF91DF91FF91EF91BF91AF919F91AE
:101320008F917F916F915F914F913F912F910F908E
:101330000FBE0F901F901895DF93CF9300D0CDB7BD
:10134000DEB79A83898389819A8122E232E0FC01A7
:101350003183208389819A81FC0111AA10AA898195
:101360009A81FC0113AA12AA0F900F90CF91DF91DE
:101370000895DF93CF9300D000D0CDB7DEB79A8326
:1013800089837C836B8389819A81FC0180A991A9DF
:1013900049815A819C012F5F3F4F220F331F240F39
:1013A000351F4B815C81F901518340839C012F5F84
:1013B0003F4F89819A81FC0131AB20AB89819A81B1
:1013C000FC0180A991A98731910529F489819A812D
:1013D000FC0111AA10AA0F900F900F900F90CF91BF
:1013E000DF910895DF93CF9300D000D0CDB7DEB763
:1013F0009C838B838B819C81FC0182A993A94B8167
:101400005C819C012F5F3F4F220F331F240F351F3C
:10141000F901208131813A8329839C012F5F3F4F5D
:101420008B819C81FC0133AB22AB8B819C81FC01C5
:1014300082A993A98731910529F48B819C81FC01B4
:1014400013AA12AA89819A810F900F900F900F9082
:10145000CF91DF910895DF93CF9300D0CDB7DEB762
:101460009A83898389819A81FC0120A931A9898184
:101470009A81FC0182A993A941E02817390709F450
:1014800040E0842F0F900F90CF91DF910895DF936C
:10149000CF9300D000D0CDB7DEB79A8389837C8309
:1014A0006B8389819A818130910549F48B819C817C
:1014B0002FEF8F3F920719F488E292E074DE898162
:1014C0009A81009749F48B819C812FEF8F3F92077F
:1014D00019F488E292E09ADC0F900F900F900F9031
:1014E000CF91DF910895DF93CF93CDB7DEB781E041
:1014F00090E06FEF7FEFCBDFCF91DF910895DF9327
:10150000CF93CDB7DEB780E090E06FEF7FEFBFDF26
:10151000CF91DF9108950F931F93DF93CF93CDB7B2
:10152000DEB7C85BD0400FB6F894DEBF0FBECDBFAC
:10153000CE014196C5DBCE018F5A9F4F34DE1A8211
:10154000198283E290E023E2FC01208384E290E0B0
:1015500024E2FC01208385E290E020E8FC01208366
:10156000CE01419643DC9A83898389819A818431B3
:101570009105B4F085E290E025E230E0F9012081A8
:101580002062FC012083CE01419664E170E051DCD1
:101590009A8389832981CE018F5A9F4F622F29DE3A
:1015A00080E090E0A8ECB2E48B839C83AD83BE83A3
:1015B0006B817C818D819E8120E030E04AE755E49B
:1015C0000E942702DC01CB018F839887A987BA8705
:1015D00011E06F81788589859A8520E030E040E8C8
:1015E0005FE386D888230CF010E0112329F081E016
:1015F00090E09C878B8749C011E06F817885898551
:101600009A8520E03FEF4FE757E418D818160CF002
:1016100010E0112381F16B817C818D819E8120E01E
:1016200030E040E251E40E942702DC01CB01BC0122
:10163000CD010E945F00DC01CB019C878B8712C02B
:1016400080E991E09E878D878D859E858C01C801FC
:101650000197F1F78C011E870D878B859C8501977B
:101660009C878B8721E08B859C85009709F420E07F
:10167000222331F775CF6F81788589859A850E94FD
:101680005F00DC01CB019C878B878B859C85988BC9
:101690008F878F8598898C01F8013197F1F78F0139
:1016A000188B0F875DCF629FD001739FF001829FDF
:1016B000E00DF11D649FE00DF11D929FF00D839FE1
:1016C000F00D749FF00D659FF00D9927729FB00D7E
:1016D000E11DF91F639FB00DE11DF91FBD01CF0191
:1016E00011240895A1E21A2EAA1BBB1BFD010DC0F7
:1016F000AA1FBB1FEE1FFF1FA217B307E407F507C2
:1017000020F0A21BB30BE40BF50B661F771F881F9D
:10171000991F1A9469F760957095809590959B0133
:10172000AC01BD01CF0108952F923F924F925F927D
:101730006F927F928F929F92AF92BF92CF92DF92E1
:10174000EF92FF920F931F93CF93DF93CDB7DEB746
:10175000CA1BDB0B0FB6F894DEBF0FBECDBF0994DA
:101760002A88398848885F846E847D848C849B8431
:10177000AA84B984C884DF80EE80FD800C811B813F
:10178000AA81B981CE0FD11D0FB6F894DEBF0FBE6E
:10179000CDBFED010895EE0FFF1F0590F491E02DF0
:1017A000099411F40EF44DC03EC05DD0D0F39923DE
:1017B000D9F3CEF39F57550B87FF46D00024A0E600
:1017C00040EA900180585695979528F4805C660F02
:1017D000771F881F20F026173707480730F4621B51
:1017E000730B840B202931294A2BA6951794079453
:1017F000202531254A2758F7660F771F881F20F0CC
:1018000026173707480730F4620B730B840B200D43
:10181000311D411DA09581F7B901842F9158880F82
:101820009695879508959F3F31F0915020F48795C4
:1018300077956795B795880F911D9695879597F938
:1018400008959FEF80EC089591505040660F771FE8
:10185000881FD2F7089557FD9058440F551F59F02F
:101860005F3F71F04795880F97FB991F61F09F3F8D
:1018700079F087950895121613061406551FF2CFB6
:101880004695F1DF08C0161617061806991FF1CF06
:1018900086957105610508940895CF93DF93823092
:1018A000910510F482E090E0E0919202F0919302B1
:1018B00040E050E020E030E026C060817181681790
:1018C0007907E0F06817790781F482819381211507
:1018D000310531F0D90113969C938E9312972BC04A
:1018E000909393028093920226C04115510519F0FE
:1018F0006417750718F4AB01E901DF019F017281DC
:101900006381E72FF62F3097C1F64115510501F19C
:10191000481B590B4430510580F412968D919C91CF
:101920001397209719F09B838A8304C090939302A6
:1019300080939202FD01329646C0FD01E40FF51F2F
:10194000819391934250504011965C934E933BC0CB
:1019500020919002309191022115310541F420919E
:101960000A0230910B023093910220939002209151
:101970000C0230910D022115310541F42DB73EB70F
:101980004091080250910902241B350BE09190020E
:10199000F0919102E217F307A0F42E1B3F0B2817DA
:1019A000390778F0AC014E5F5F4F2417350748F0D8
:1019B0004E0F5F1F50939102409390028193919339
:1019C00002C0E0E0F0E0CF01DF91CF910895CF9326
:1019D000DF93009709F491C0FC01329713821282C1
:1019E00060919202709193026115710581F42081DA
:1019F0003181280F391F80919002909191028217B6
:101A0000930799F5F0939102E093900276C0DB0181
:101A100080E090E002C0CD01D901AE17BF0748F4C5
:101A200012962D913C91139721153105A1F7CD0107
:101A300021C0B383A283EF01499159919E01240FE4
:101A4000351FA217B30779F42D913C911197240FFC
:101A5000351F2E5F3F4F3183208312962D913C918D
:101A6000139733832283009729F4F0939302E09332
:101A7000920243C0DC011396FC93EE9312974D91B2
:101A80005D91A40FB51FEA17FB0769F4208131812E
:101A9000240F351F2E5F3F4FEC01398328832281AD
:101AA00033813B832A83E0E0F0E002C0FB01BC010C
:101AB000DB0112968D919C9113970097B9F79B01CA
:101AC0002E5F3F4F8D919C911197820F931F4091F4
:101AD0009002509191024817590779F4309729F4F0
:101AE000109293021092920202C01382128222502C
:101AF00030403093910220939002DF91CF9108956E
:101B000010E0CAE6D0E003C0FE0147DE2296CC36E4
:081B1000D107D1F7F894FFCFD3
:101B180000000000000000000001020203030303AC
:101B28000404040404040404050505050505050565
:101B38000505050505050505060606060606060645
:101B4800060606060606060606060606060606062D
:101B58000606060606060606070707070707070715
:101B680007070707070707070707070707070707FD
:101B780007070707070707070707070707070707ED
:101B880007070707070707070707070707070707DD
:101B980007070707070707070808080808080808C5
:101BA80008080808080808080808080808080808AD
:101BB800080808080808080808080808080808089D
:101BC800080808080808080808080808080808088D
:101BD800080808080808080808080808080808087D
:101BE800080808080808080808080808080808086D
:101BF800080808080808080808080808080808085D
:101C0800080808080808080808080808080808084C
:101C180008080808080808082000940200000000C6
:101C280000008806A80600000000D207EE070000A2
:061C380000005B087708C4
:00000001FF
